:020000040800F2
:1000000000500020E11B0008D1190008D719000892
:10001000DD190008E3190008E919000800000000D4
:10002000000000000000000000000000C187000880
:10003000EF19000800000000A1890008E989000804
:10004000291C0008291C0008291C0008291C00087C
:10005000291C0008291C0008FB190008091A0008BF
:10006000291C0008291C0008291C0008291C00085C
:10007000291C0008291C0008291C0008291C00084C
:10008000291C0008291C0008291C0008291C00083C
:10009000291C0008291C0008291C0008291C00082C
:1000A000291C0008291C0008291C0008291C00081C
:1000B000191A0008291C00082D1A0008291C00081C
:1000C000291C0008291C0008291C0008291C0008FC
:1000D000291C0008291C0008411A0008291C0008D6
:1000E000291C0008291C0008291C00080000000029
:1000F0000000000000000000000000000000000000
:0C01000000000000000000005FF808F1A3
:1001100010B5054C237833B9044B13B10448AFF341
:1001200000800123237010BDE401002000000000C6
:1001300030D8000808B5034B1BB103490348AFF39F
:10014000008008BD00000000E801002030D8000851
:10015000034613F8012B002AFBD1181A0138704707
:1001600081F0004102E000BF83F0004330B54FEA68
:1001700041044FEA430594EA050F08BF90EA020FD5
:100180001FBF54EA000C55EA020C7FEA645C7FEA68
:10019000655C00F0E2804FEA5454D4EB5555B8BF8B
:1001A0006D420CDD2C4480EA020281EA030382EAFC
:1001B000000083EA010180EA020281EA0303362D8E
:1001C00088BF30BD11F0004F4FEA01314FF4801C61
:1001D0004CEA113102D0404261EB410113F0004F73
:1001E0004FEA03334CEA133302D0524263EB43032A
:1001F00094EA050F00F0A780A4F10104D5F1200EC8
:100200000DDB02FA0EFC22FA05F2801841F1000122
:1002100003FA0EF2801843FA05F359410EE0A5F1F6
:1002200020050EF1200E012A03FA0EFC28BF4CF027
:10023000020C43FA05F3C01851EBE37101F00045DD
:1002400007D54FF0000EDCF1000C7EEB00006EEBEA
:100250000101B1F5801F1BD3B1F5001F0CD3490874
:100260005FEA30004FEA3C0C04F101044FEA4452CB
:1002700012F5800F80F09A80BCF1004F08BF5FEA52
:10028000500C50F1000041EB045141EA050130BD32
:100290005FEA4C0C404141EB0101013C28BFB1F544
:1002A000801FE9D291F0000F04BF01460020B1FA8F
:1002B00081F308BF2033A3F10B03B3F120020CDA62
:1002C0000C3208DD02F1140CC2F10C0201FA0CF040
:1002D00021FA02F10CE002F11402D8BFC2F1200CA5
:1002E00001FA02F120FA0CFCDCBF41EA0C0190405B
:1002F000E41AA2BF01EB0451294330BD6FEA0404A4
:100300001F3C1CDA0C340EDC04F11404C4F120028E
:1003100020FA04F001FA02F340EA030021FA04F3A0
:1003200045EA030130BDC4F10C04C4F1200220FAF7
:1003300002F001FA04F340EA0300294630BD21FA35
:1003400004F0294630BD94F0000F83F4801306BFFB
:1003500081F480110134013D4EE77FEA645C18BFEF
:100360007FEA655C29D094EA050F08BF90EA020F86
:1003700005D054EA000C04BF1946104630BD91EA7E
:10038000030F1EBF0021002030BD5FEA545C05D181
:100390004000494128BF41F0004130BD14F58004C0
:1003A0003CBF01F5801130BD01F0004545F0FE4134
:1003B00041F470014FF0000030BD7FEA645C1ABF69
:1003C000194610467FEA655C1CBF0B46024650EAA0
:1003D000013406BF52EA033591EA030F41F40021CC
:1003E00030BD00BF90F0000F04BF0021704730B552
:1003F0004FF4806404F132044FF000054FF0000127
:1004000050E700BF90F0000F04BF0021704730B5E7
:100410004FF4806404F1320410F0004548BF4042BC
:100420004FF000013EE700BF42004FEAE2014FEA11
:1004300031014FEA02701FBF12F07F4393F07F4FEC
:1004400081F06051704732F07F4208BF704793F0EF
:100450007F4F04BF41F40021704730B54FF4607402
:1004600001F0004521F000411CE700BF50EA010205
:1004700008BF704730B54FF000050AE050EA0102AE
:1004800008BF704730B511F0004502D5404261EB1E
:1004900041014FF4806404F132045FEA915C3FF45F
:1004A000D8AE4FF003025FEADC0C18BF03325FEAFC
:1004B000DC0C18BF033202EBDC02C2F1200300FAAD
:1004C00003FC20FA02F001FA03FE40EA0E0021FAD2
:1004D00002F11444BDE600BF70B54FF0FF0C4CF4C0
:1004E000E06C1CEA11541DBF1CEA135594EA0C0F72
:1004F00095EA0C0F00F0DEF82C4481EA030621EAAD
:100500004C5123EA4C5350EA013518BF52EA0335E7
:1005100041F4801143F4801338D0A0FB02CE4FF099
:100520000005E1FB02E506F00042E0FB03E54FF0C9
:100530000006E1FB03569CF0000F18BF4EF0010EC1
:10054000A4F1FF04B6F5007F64F5407404D25FEABD
:100550004E0E6D4146EB060642EAC62141EA555170
:100560004FEAC52040EA5E504FEACE2EB4F1FD0CB2
:1005700088BFBCF5E06F1ED8BEF1004F08BF5FEA30
:10058000500E50F1000041EB045170BD06F00046E2
:1005900046EA010140EA020081EA0301B4EB5C048F
:1005A000C2BFD4EB0C0541EA045170BD41F4801187
:1005B0004FF0000E013C00F3AB8014F1360FDEBFAC
:1005C000002001F0004170BDC4F10004203C35DA88
:1005D0000C341BDC04F11404C4F1200500FA05F30B
:1005E00020FA04F001FA05F240EA020001F00042AC
:1005F00021F0004110EBD37021FA04F642EB060122
:100600005EEA430E08BF20EAD37070BDC4F10C044B
:10061000C4F1200500FA04F320FA05F001FA04F20F
:1006200040EA020001F0004110EBD37041F10001FB
:100630005EEA430E08BF20EAD37070BDC4F1200506
:1006400000FA05F24EEA020E20FA04F301FA05F26E
:1006500043EA020321FA04F001F0004121FA04F216
:1006600020EA020000EBD3705EEA430E08BF20EAE6
:10067000D37070BD94F0000F0FD101F00046400020
:1006800041EB010111F4801F08BF013CF7D041EAA2
:10069000060195F0000F18BF704703F000465200A6
:1006A00043EB030313F4801F08BF013DF7D043EA77
:1006B0000603704794EA0C0F0CEA135518BF95EA2D
:1006C0000C0F0CD050EA410618BF52EA4306D1D1B4
:1006D00081EA030101F000414FF0000070BD50EAD3
:1006E000410606BF1046194652EA430619D094EA5D
:1006F0000C0F02D150EA013613D195EA0C0F05D147
:1007000052EA03361CBF104619460AD181EA03019A
:1007100001F0004141F0FE4141F470014FF0000052
:1007200070BD41F0FE4141F4780170BD70B54FF0ED
:10073000FF0C4CF4E06C1CEA11541DBF1CEA13556D
:1007400094EA0C0F95EA0C0F00F0A7F8A4EB05044F
:1007500081EA030E52EA03354FEA013100F0888046
:100760004FEA03334FF0805545EA131343EA12630F
:100770004FEA022245EA111545EA10654FEA0026C4
:100780000EF000419D4208BF964244F1FD0404F57D
:10079000407402D25B084FEA3202B61A65EB0305D9
:1007A0005B084FEA32024FF480104FF4002CB6EB96
:1007B000020E75EB030E22BFB61A754640EA0C0016
:1007C0005B084FEA3202B6EB020E75EB030E22BF56
:1007D000B61A754640EA5C005B084FEA3202B6EB97
:1007E000020E75EB030E22BFB61A754640EA9C0056
:1007F0005B084FEA3202B6EB020E75EB030E22BF26
:10080000B61A754640EADC0055EA060E18D04FEAE3
:10081000051545EA16754FEA06164FEAC30343EA83
:1008200052734FEAC2025FEA1C1CC0D111F4801F50
:100830000BD141EA00014FF000004FF0004CB6E749
:1008400011F4801F04BF01430020B4F1FD0C88BFE8
:10085000BCF5E06F3FF6AFAEB5EB030C04BFB6EBF3
:10086000020C5FEA500C50F1000041EB045170BDE6
:100870000EF0004E4EEA113114EB5C04C2BFD4EB13
:100880000C0541EA045170BD41F480114FF0000E97
:10089000013C90E645EA060E8DE60CEA135594EA13
:1008A0000C0F08BF95EA0C0F3FF43BAF94EA0C0F16
:1008B0000AD150EA01347FF434AF95EA0C0F7FF48B
:1008C00025AF104619462CE795EA0C0F06D152EADF
:1008D00003353FF4FDAE1046194622E750EA4106C3
:1008E00018BF52EA43067FF4C5AE50EA41047FF4D4
:1008F0000DAF52EA43057FF4EBAE12E74FF0FF3C39
:1009000006E000BF4FF0010C02E000BF4FF0010C09
:100910004DF804CD4FEA410C7FEA6C5C4FEA430C82
:1009200018BF7FEA6C5C1BD001B050EA410C0CBFD1
:1009300052EA430C91EA030F02BF90EA020F002033
:10094000704710F1000F91EA030F58BF994208BF9A
:1009500090422CBFD8176FEAE37040F00100704757
:100960004FEA410C7FEA6C5C02D150EA013C07D1AE
:100970004FEA430C7FEA6C5CD6D152EA033CD3D0F9
:100980005DF8040B704700BF8446104662468C46F3
:100990001946634600E000BF01B5FFF7B7FF002826
:1009A00048BF10F1000F01BD4DF808EDFFF7F4FF4F
:1009B0000CBF012000205DF808FB00BF4DF808EDDA
:1009C000FFF7EAFF34BF012000205DF808FB00BFFD
:1009D0004DF808EDFFF7E0FF94BF012000205DF81F
:1009E00008FB00BF4DF808EDFFF7CEFF94BF0120D4
:1009F00000205DF808FB00BF4DF808EDFFF7C4FFCD
:100A000034BF012000205DF808FB00BF4FEA410C15
:100A10007FEA6C5C02D150EA013C0AD14FEA430CF8
:100A20007FEA6C5C02D152EA033C02D14FF0000035
:100A300070474FF0010070474FEA410212F5001273
:100A400015D211D56FF47873B3EB625212D94FEA15
:100A5000C12343F0004343EA505311F0004F23FAFF
:100A600002F018BF404270474FF00000704750EA54
:100A7000013005D111F0004008BF6FF00040704711
:100A80004FF00000704700BF4A0011D212F500126B
:100A900011D20DD56FF47873B3EB62520ED44FEAD6
:100AA000C12343F0004343EA505323FA02F0704756
:100AB0004FF00000704750EA013002D14FF0FF3094
:100AC00070474FF0000070474FEA4102B2F1E04337
:100AD00024BFB3F5001CDCF1FE5C0DD901F0004C25
:100AE0004FEAC0024CEA5070B2F1004F40EB830075
:100AF00008BF20F00100704711F0804F21D113F1A1
:100B00003872BCBF01F00040704741F480114FEAD9
:100B10005252C2F11802C2F1200C10FA0CF320FA62
:100B200002F018BF40F001004FEAC1234FEAD3237F
:100B300003FA0CFC40EA0C0023FA02F34FEA4303E9
:100B4000CCE77FEA625307D150EA01331EBF4FF072
:100B5000FE4040F44000704701F0004040F0FE408D
:100B600040F40000704700BF38B505460C4600222F
:100B7000002328462146FFF721FF28B928462146B1
:100B8000BDE8384000F00AB8284604F1004100F002
:100B900005F8404261EB410138BD00BFD0B50022ED
:100BA0000B4B06460F46FFF797FCFFF76DFF044619
:100BB000FFF718FC0022074BFFF78EFC02460B469E
:100BC00030463946FFF7D0FAFFF75EFF2146D0BD29
:100BD0000000F03D0000F04180B582B000AF7860C9
:100BE0007B681A680E4B1B689A4214D10D4B002289
:100BF0001A600D4B1868002300220C4905F066FDB1
:100C00000B4B1B680749184605F0F8FD0122074900
:100C1000034803F040FA00BF0837BD4680BD00BF5F
:100C2000A0020020EC030020E8020020FC020020CB
:100C3000F002002080B584B000AF0346FB80FB8843
:100C4000012B16D101F01AF8B860184B1B68BA686E
:100C5000D31AC82B09D9164B01221A6004F056FD8D
:100C600001224021134801F04BFB104ABB6813607E
:100C700018E0FB88022B15D101F000F8F8600E4B4C
:100C80001B68FA68D31AC82B09D9094B01221A60CC
:100C900004F03CFD01222021064801F031FB064A08
:100CA000FB68136000BF1037BD4680BDF003002015
:100CB00044030020000C0140F403002080B58CB0F8
:100CC0000CAF00F0B3FF00F085F800F06DF900F014
:100CD000BDF800F03FF900F0EFF801224FF40051A9
:100CE0002C4801F00DFB4FF480430A93294B0993E4
:100CF0004FF400430893274B07934FF480730693F8
:100D0000254B05934FF400730493234B03934FF447
:100D100080630293204B01934FF4805300931E4B4A
:100D2000022210211D4803F09AFF00F009FC1C4824
:100D300004F03BFB1A4804F02CFB012219491A4825
:100D400003F0A9F9194802F01DFD04F0D5FE184A78
:100D50000121012005F00EF80346164A1360164AD9
:100D60000521052005F006F80346144A1360144ACD
:100D70000221102005F09AF80346124A1360124A25
:100D80000021124804F01EFF0346114A136004F0CC
:100D9000E5FEFEE7000C014000080140680300206A
:100DA000C0030020FC020020A00200205802002006
:100DB00040D90008EC02002050D90008F0020020C1
:100DC00028D90008E802002004D90008BD15000851
:100DD000E402002080B590B000AF07F1180328228C
:100DE0000021184608F08BF93B1D00221A605A605A
:100DF0009A60DA601A610223BB610123BB6210238F
:100E0000FB6200237B6307F11803184601F0A8FA80
:100E10000346002B01D000F05FFC0F237B60002312
:100E2000BB600023FB6000233B6100237B613B1D13
:100E30000021184601F016FD0346002B01D000F0FA
:100E40004BFC00BF4037BD4680BD000080B500AF01
:100E5000174B184A1A60164B4FF482725A60144BA3
:100E600000229A60124B0022DA60114B00221A61B4
:100E70000F4B00225A610E4B4FF400729A610C4BDB
:100E80000022DA610A4B00221A62094B00225A62E0
:100E9000074B00229A62064B0A22DA62044801F0EC
:100EA000A9FE0346002B01D000F016FC00BF80BD58
:100EB000000200200030014080B586B000AF07F18D
:100EC000080300221A605A609A60DA603B460022EA
:100ED0001A605A601E4B4FF080421A601C4B4FF450
:100EE000FA525A601A4B00229A60194B4EF6602251
:100EF000DA60174B00221A61154B80229A61144860
:100F000002F0F0FB0346002B01D000F0E5FB4FF4AC
:100F10008053BB6007F1080319460D4802F08CFDB1
:100F20000346002B01D000F0D7FB00233B600023D9
:100F30007B603B461946064802F05EFF0346002BE5
:100F400001D000F0C9FB00BF1837BD4680BD00BF0F
:100F50005802002080B500AF114B124A1A60104BA6
:100F60004FF496425A600E4B00229A600C4B4FF49D
:100F70000052DA600A4B00221A61094B0C225A61B6
:100F8000074B00229A61064B0022DA61044802F006
:100F9000A3FF0346002B01D000F09EFB00BF80BDE5
:100FA000A00200200044004080B588B000AF07F1E7
:100FB000100300221A605A609A60DA60464B9B69FF
:100FC000454A43F010039361434B9B6903F01003C0
:100FD000FB60FB68404B9B693F4A43F020039361F1
:100FE0003D4B9B6903F02003BB60BB683A4B9B6998
:100FF000394A43F004039361374B9B6903F00403C0
:101000007B607B68344B9B69334A43F008039361F0
:10101000314B9B6903F008033B603B68012240F2BF
:1010200001412E4801F06CF900224EF260012B487C
:1010300001F066F900224FF4F851294801F060F9F7
:1010400003233B61274B7B610023BB6107F1100346
:101050001946234800F0D0FF4EF261433B61012363
:101060007B610023BB610223FB6107F1100319467A
:101070001A4800F0C1FF4FF400633B611A4B7B61DB
:101080000023BB6107F110031946144800F0B4FFB8
:101090004FF4F8533B6101237B610023BB610223C2
:1010A000FB6107F1100319460D4800F0A5FF00226F
:1010B0000721062000F0C5FE062000F0DEFE00221B
:1010C0000721072000F0BDFE072000F0D6FE00BF7C
:1010D0002037BD4680BD00BF00100240000C01401B
:1010E00000080140000021100000111080B500AF81
:1010F000B94B1B68062B00F2088201A252F823F0BC
:101100001D11000867110008AD1200083713000810
:10111000871300081D1400086D140008AF4B1B88CE
:10112000184604F01FFB03469AB2AD4B1A80AC4B35
:101130001B88B3F5FA6F08D1642004F0EDFD04F0CC
:1011400023FBA54B01221A60DFE1642004F0E4FDDB
:1011500020220021A34807F0D2FF04F075FC9E4B2B
:1011600002221A60D1E19D4B1B88184604F038FB1F
:1011700003469AB29C4B1A809B4B1B8840F6B932AF
:1011800093422CD100220021984803F0FBFD98499E
:10119000964803F05EFE4FF4FA6004F0BDFD954BF7
:1011A00001221A70934B01225A70924B01229A70BD
:1011B0004FF47A7303228F498F4804F092F80A2281
:1011C00000218C4807F09BFF20220021854807F072
:1011D00096FF04F035FB804B03221A6094E1824BAA
:1011E0001B8840F6BA3293422CD1002200217F485E
:1011F00003F0C8FD81497D4803F02BFE4FF4FA60EF
:1012000004F08AFD7B4B01221A707A4B01225A703E
:10121000784B02229A704FF47A730322754976480C
:1012200004F05FF80A220021724807F068FF2022CC
:1012300000216C4807F063FF04F05CFB664B04225E
:101240001A6061E1684B1B8840F6BB32934240F064
:101250005B8100220021654803F094FD68496348E2
:1012600003F0F7FD4FF4FA6004F056FD614B0122E4
:101270001A70604B01225A705E4B03229A704FF431
:101280007A7303225B495C4804F02BF80A220021A0
:10129000584807F034FF20220021524807F02FFF62
:1012A00004F082FB4C4B05221A602DE1514B0122C8
:1012B0001A70504B02225A704A4BDA784D4B9A7092
:1012C000484B1A794B4BDA70464B5A79494B1A7195
:1012D000444B9A79474B5A714A4B1B68184604F0A5
:1012E000BDF90346484A1360474B1B681846FFF791
:1012F0009BF802460B464549454808F089FE002206
:1013000000213A4803F03EFD4149384803F0A1FD71
:101310004FF47A7004F000FD20220021314807F0DC
:10132000EEFE394B4FF000021A6004F0B9FB2A4B75
:1013300006221A60E9E0294B1B88184604F0ACFA33
:1013400003461A46334B1A702A4B01221A70294B56
:1013500001225A70274B01229A702E4B1A78254B86
:10136000DA704FF47A7304222249234803F0B9FF5C
:101370000A2200211F4807F0C2FE2022002119483E
:1013800007F0BDFEC1E0154B1B88184604F0DEFADD
:1013900003461A46204B1A70164B01221A70154B41
:1013A00001225A70134B02229A701B4B1A78114B70
:1013B000DA704FF47A7304220E490F4803F091FF5C
:1013C0000A2200210B4807F09AFE2022002105483E
:1013D00007F095FE99E000BF40030020F4020020D2
:1013E000320300200C030020340300206803002097
:1013F00080D80008F8030020C003002094D800081B
:10140000A8D80008F802002038030020BCD8000843
:101410004803002006030020070300203C4B1B88E4
:10142000184604F0EDFA03461A463A4B1A703A4B46
:1014300001221A70384B01225A70374B02229A70DF
:10144000344B1A78344BDA704FF47A7304223249F1
:10145000324803F046FF0A2200212F4807F04FFED2
:10146000202200212E4807F04AFE4EE02C4BDA786D
:10147000294B9A712A4B1A79274BDA71284B5A79E2
:10148000254B1A72264B9A79234B5A724FF47A7372
:101490000A222149214803F024FF0A2200211E4884
:1014A00007F02DFE1F4B1B68184604F0D7F80346C3
:1014B0001D4A13601C4B1B681846FEF7B5FF024619
:1014C0000B461A491A4808F0A3FD012200211948C9
:1014D00003F058FC1649174803F0BBFC41F2883072
:1014E00000F0D6FB00226021134800F009FF0E4BEC
:1014F0004FF000021A6020220021094807F0FFFD8A
:101500000E4B00221A6000E000BF00BF80BD00BF8C
:10151000F402002008030020F8030020C00300208C
:101520000C030020F80200203C030020CCD8000867
:101530004803002068030020000C01404003002005
:1015400080B400AF1A4B1B4A1A60194B01229A80D3
:10155000174B184A9A60164B4FF480629A81144BCD
:10156000144A1A61124B4FF400629A82104B124ACD
:101570009A610F4B40F2B1121A620D4B072283F8A9
:1015800024200B4B072283F82520094B012283F8E6
:101590002620074BFF2283F82A20054B642283F87C
:1015A0002B20034B08221A8500BFBD4680BC704724
:1015B000C0030020000C01400002002080B582B072
:1015C00000AF786050E0304B1B684FF0FF322F497E
:1015D000184605F0A1F90346002B45D02C4B1B689B
:1015E0005A1C2B490A60294A11782A4AD1542A4B9D
:1015F0001B8801339AB2284B1A80274B1B88062B75
:1016000032D9234B1B68DBB21946224803F0A8FFEE
:101610000346012B28D11F4BDB781B021AB21D4B4E
:101620001B791BB213431BB29AB21C4B1A80194B85
:101630005B791B021AB2174B9B791BB213431BB287
:101640009AB2164B5A80154B5B881B04134A1288BA
:1016500013431A46124B1A60FFF748FD0C4B002249
:101660001A600D4B00221A800E4B1B684FF0FF31A1
:10167000184605F031FA0346002BA4D100BF00BF85
:101680000837BD4680BD00BFE802002005030020EA
:101690002C0300200C03002030030020F402002063
:1016A000F8020020F002002080B582B000AF786020
:1016B0007B681B68074A934201D100F0CDFA7B6832
:1016C0001B68B3F1804F01D104F020F800BF083748
:1016D000BD4680BD0008004080B400AF72B600BFB8
:1016E000FEE7000080B584B000AF184B9B69174A35
:1016F00043F001039361154B9B6903F00103BB6049
:10170000BB68124BDB69114A43F08053D3610F4B26
:10171000DB6903F080537B607B6800220F216FF050
:10172000010000F08EFB0A4B5B68FB60FB6823F056
:10173000E063FB60FB6843F00073FB60044AFB68F6
:10174000536000BF1037BD4680BD00BF001002408F
:101750000000014080B588B000AF786007F1100349
:1017600000221A605A609A60DA607B681B681B4A24
:1017700093422FD11A4B9B69194A43F480539361CA
:10178000174B9B6903F48053FB60FB68144B9B6908
:10179000134A43F004039361114B9B6903F0040364
:1017A000BB60BB68A0233B6102237B610323FB6119
:1017B00007F1100319460B4800F01EFC40233B6163
:1017C00000237B610023BB6107F110031946054824
:1017D00000F012FC00BF2037BD4680BD0030014044
:1017E000001002400008014080B584B000AF78606E
:1017F0007B681B68B3F1804F13D10C4BDB690B4A3C
:1018000043F00103D361094BDB6903F00103FB6083
:10181000FB68002205211C2000F013FB1C2000F0B7
:101820002CFB00BF1037BD4680BD00BF001002403A
:1018300080B588B000AF786007F1100300221A600D
:101840005A609A60DA607B681B681F4A934237D1FE
:101850001E4BDB691D4A43F40033D3611B4BDB692C
:1018600003F40033FB60FB68184B9B69174A43F095
:1018700004039361154B9B6903F00403BB60BB68D1
:1018800004233B6102237B610323FB6107F1100307
:1018900019460F4800F0B0FB08233B6100237B6131
:1018A0000023BB6107F110031946094800F0A4FBAF
:1018B00000220521262000F0C4FA262000F0DDFADF
:1018C00000BF2037BD4680BD0044004000100240EC
:1018D0000008014080B58EB000AF78600023FB6245
:1018E0000023BB62002387F83330344BDB69334A73
:1018F00043F00403D361314BDB6903F00403FB6065
:10190000FB6807F1100207F114031146184601F0B5
:1019100023F93B6AFB62FB6A002B03D101F0F4F868
:10192000786304E001F0F0F803465B007B637B6BB7
:10193000234AA2FB03239B0C013BBB62214B224A9F
:101940001A60204B40F2E732DA601E4ABB6A5360ED
:101950001C4B00221A611B4B00229A60194B00227B
:101960009A61184801F0BEFE034687F8333097F8B5
:101970003330002B1BD1134801F004FF034687F8D6
:10198000333097F83330002B11D11E2000F075FA58
:101990007B680F2B08D8002279681E2000F051FACE
:1019A0000A4A7B68136002E0012387F8333097F816
:1019B000333018463837BD4680BD00BF00100240A6
:1019C00083DE1B43040400200008004004000020C4
:1019D00080B400AFFEE780B400AFFEE780B400AF94
:1019E000FEE780B400AFFEE780B400AFFEE780B44E
:1019F00000AF00BFBD4680BC704780B500AF01207E
:101A000000F096FC00BF80BD80B500AF022000F062
:101A10008FFC00BF80BD000080B500AF024801F020
:101A200003FF00BF80BD00BF5802002080B500AF9B
:101A3000024801F0F9FE00BF80BD00BF0404002091
:101A400080B500AF024802F057FB00BF80BD00BF69
:101A5000A002002080B400AF01231846BD4680BC20
:101A6000704780B582B000AF7860396007F016FA31
:101A7000034616221A604FF0FF3318460837BD465A
:101A800080BD80B582B000AF78604FF0FF317868DC
:101A9000FFF7E7FFFEE780B586B000AFF860B960FA
:101AA0007A6000237B610AE0AFF300800146BB68E7
:101AB0005A1CBA60CAB21A707B6901337B617A69B9
:101AC0007B689A42F0DB7B6818461837BD4680BDBC
:101AD00080B586B000AFF860B9607A6000237B61A2
:101AE00009E0BB685A1CBA601B781846AFF3008047
:101AF0007B6901337B617A697B689A42F1DB7B68A1
:101B000018461837BD4680BD80B483B000AF7860FA
:101B10004FF0FF3318460C37BD4680BC704780B489
:101B200083B000AF786039603B684FF400525A6070
:101B3000002318460C37BD4680BC704780B483B084
:101B400000AF7860012318460C37BD4680BC704753
:101B500080B485B000AFF860B9607A6000231846A1
:101B60001437BD4680BC704780B586B000AF786042
:101B7000144A154BD31A7B617B693B61134B1B687D
:101B8000002B02D1114B124A1A60104B1A687B6865
:101B900013443A699A4207D207F080F903460C22AF
:101BA0001A604FF0FF3309E0084B1B68FB60074BDE
:101BB0001A687B681344054A1360FB681846183797
:101BC000BD4680BD00500020000400004C040020F1
:101BD0007032002080B400AF00BFBD4680BC7047AB
:101BE0000C480D490D4A002302E0D458C450043378
:101BF000C4188C42F9D30A4A0A4C002301E013604E
:101C00000432A242FBD3FFF7E5FF07F043FAFFF7E8
:101C100055F8704700000020E401002024E000088F
:101C2000E401002070320020FEE7000080B500AF24
:101C3000084B1B68074A43F010031360032000F0B1
:101C4000F5F80F20FFF746FEFFF74CFD002318467E
:101C500080BD00BF0020024080B400AF054B1B7860
:101C60001A46054B1B681344034A136000BFBD4668
:101C700080BC7047080000205004002080B400AFF2
:101C8000024B1B681846BD4680BC704750040020BC
:101C900080B584B000AF7860FFF7F0FFB8607B6874
:101CA000FB60FB68B3F1FF3F05D00A4B1B781A4677
:101CB000FB681344FB6000BFFFF7E0FF0246BB6810
:101CC000D31AFA689A42F7D800BF00BF1037BD4652
:101CD00080BD00BF0800002080B485B000AF7860F0
:101CE0007B6803F00703FB600C4BDB68BB60BA68E2
:101CF0004FF6FF031340BB60FB681A02BB68134337
:101D000043F0BF6343F40033BB60044ABB68D36055
:101D100000BF1437BD4680BC704700BF00ED00E037
:101D200080B400AF044BDB681B0A03F007031846BE
:101D3000BD4680BC704700BF00ED00E080B483B0BA
:101D400000AF0346FB7197F90730002B0BDBFB79E3
:101D500003F01F02064997F907305B09012000FADA
:101D600002F241F8232000BF0C37BD4680BC70470B
:101D700000E100E080B483B000AF03463960FB713E
:101D800097F90730002B0ADB3B68DAB20C4997F968
:101D900007301201D2B20B4483F800230AE03B68FB
:101DA000DAB20849FB7903F00F03043B1201D2B207
:101DB0000B441A7600BF0C37BD4680BC704700BF8D
:101DC00000E100E000ED00E080B489B000AFF86011
:101DD000B9607A60FB6803F00703FB61FB69C3F13C
:101DE0000703042B28BF0423BB61FB690433062BC4
:101DF00002D9FB69033B00E000237B614FF0FF3217
:101E0000BB6902FA03F3DA43BB681A407B699A4064
:101E10004FF0FF317B6901FA03F3D9437B680B4034
:101E2000134318462437BD4680BC704780B582B046
:101E300000AF78607868FFF74FFF00BF0837BD46F6
:101E400080BD80B586B000AF0346B9607A60FB7391
:101E500000237B61FFF764FF78617A68B96878696D
:101E6000FFF7B2FF024697F90F3011461846FFF709
:101E700081FF00BF1837BD4680BD80B582B000AF7E
:101E80000346FB7197F907301846FFF757FF00BF6D
:101E90000837BD4680BD80B485B000AF78600023B0
:101EA000FB737B6893F82130022B08D07B680422F7
:101EB0009A637B68002283F82020012320E07B685E
:101EC0001B681A687B681B6822F00E021A607B6828
:101ED0001B681A687B681B6822F001021A607B6825
:101EE0001A6C7B68DB6B012101FA02F25A607B6895
:101EF000012283F821207B68002283F82020FB7BCD
:101F000018461437BD4680BC7047000080B584B0C9
:101F100000AF78600023FB737B6893F82130022BBD
:101F200005D07B6804229A630123FB7351E07B6830
:101F30001B681A687B681B6822F00E021A607B68B7
:101F40001B681A687B681B6822F001021A607B68B4
:101F50001B68224A934229D07B681B68204A93421F
:101F600022D07B681B681F4A93421AD07B681B688B
:101F70001D4A934212D07B681B681C4A93420AD0C8
:101F80007B681B681A4A934202D14FF480130EE01B
:101F90004FF080730BE04FF4803308E04FF4805330
:101FA00005E04FF4807302E0102300E00123114AA2
:101FB00053607B68012283F821207B68002283F82C
:101FC00020207B685B6B002B03D07B685B6B7868A1
:101FD0009847FB7B18461037BD4680BD080002407D
:101FE0001C00024030000240440002405800024001
:101FF0006C0002400000024080B48BB000AF7860FB
:10200000396000237B6200233B6269E101227B6A25
:1020100002FA03F3FB613B681B68FA691340BB617A
:10202000BA69FB699A4240F058813B685B689A4AFA
:1020300093425ED0984A934275D8984A934258D0BA
:10204000964A93426FD8964A934252D0944A93420A
:1020500069D8944A93424CD0924A934263D8924AA8
:10206000934246D0904A93425DD8122B2AD8122B25
:1020700059D801A252F823F0F3200008CD2000081F
:10208000DF2000082121000827210008272100085F
:102090002721000827210008272100082721000800
:1020A00027210008272100082721000827210008F0
:1020B000272100082721000827210008D520000833
:1020C000E9200008794A934213D02CE03B68DB6892
:1020D0003B6229E03B68DB6804333B6224E03B68F9
:1020E000DB6808333B621FE03B68DB680C333B6214
:1020F0001AE03B689B68002B02D104233B6213E08B
:102100003B689B68012B05D108233B627B68FA6919
:102110001A6109E008233B627B68FA695A6103E0AF
:1021200000233B6200E000BFBB69FF2B01D87B6846
:1021300001E07B6804337B61BB69FF2B02D87B6ABB
:102140009B0002E07B6A083B9B003B617B691A684D
:102150000F213B6901FA03F3DB431A40396A3B69FB
:1021600001FA03F31A437B691A603B685B6803F06A
:102170008053002B00F0B1804D4B9B694C4A43F0DB
:10218000010393614A4B9B6903F00103BB60BB6889
:10219000484A7B6A9B08023352F82330FB607B6A13
:1021A00003F003039B000F2202FA03F3DB43FA68F8
:1021B0001340FB607B68404A934213D07B683F4AE0
:1021C00093420DD07B683E4A934207D07B683D4ADC
:1021D000934201D1032306E0042304E0022302E03A
:1021E000012300E000237A6A02F003029200934088
:1021F000FA681343FB602F497B6A9B080233FA6835
:1022000041F823203B685B6803F48033002B06D041
:102210002D4B1A682C49BB6913430B6006E02A4B0F
:102220001A68BB69DB43284913400B603B685B6855
:1022300003F40033002B06D0234B5A682249BB69B4
:1022400013434B6006E0204B5A68BB69DB431E49D1
:1022500013404B603B685B6803F48013002B06D08F
:10226000194B9A681849BB6913438B6006E0164BFB
:102270009A68BB69DB43144913408B603B685B6819
:1022800003F40013002B21D00F4BDA680E49BB6911
:102290001343CB6021E000BF00003210000031107A
:1022A0000000221000002110000012100000111088
:1022B000001002400000014000080140000C0140F5
:1022C0000010014000140140000401400B4BDA688B
:1022D000BB69DB4309491340CB607B6A01337B62F6
:1022E0003B681A687B6A22FA03F3002B7FF48EAEF8
:1022F00000BF00BF2C37BD4680BC704700040140C2
:1023000080B483B000AF78600B467B8013467B704F
:102310007B78002B03D07A887B681A6103E07B8886
:102320001A047B681A6100BF0C37BD4680BC704739
:1023300080B582B000AF0346FB80084B5A69FB882A
:102340001340002B06D0054AFB885361FB881846D2
:10235000FEF770FC00BF0837BD4680BD0004014099
:1023600080B586B000AF78607B68002B01D1012377
:1023700072E27B681B6803F00103002B00F087808A
:10238000924B5B6803F00C03042B0CD08F4B5B6803
:1023900003F00C03082B12D18C4B5B6803F48033E1
:1023A000B3F5803F0BD1894B1B6803F40033002B3E
:1023B0006CD07B685B68002B68D101234CE27B68A2
:1023C0005B68B3F5803F06D1804B1B687F4A43F4BE
:1023D000803313602EE07B685B68002B0CD17B4B55
:1023E0001B687A4A23F480331360784B1B68774A62
:1023F00023F4802313601DE07B685B68B3F5A02F96
:102400000CD1724B1B68714A43F4802313606F4BED
:102410001B686E4A43F4803313600BE06B4B1B6800
:102420006A4A23F480331360684B1B68674A23F4BD
:10243000802313607B685B68002B13D0FFF71EFCC2
:10244000386108E0FFF71AFC02463B69D31A642B97
:1024500001D9032300E25D4B1B6803F40033002B1A
:10246000F0D014E0FFF70AFC386108E0FFF706FC43
:1024700002463B69D31A642B01D90323ECE1534B89
:102480001B6803F40033002BF0D100E000BF7B6831
:102490001B6803F00203002B63D04C4B5B6803F016
:1024A0000C03002B0BD0494B5B6803F00C03082B8B
:1024B0001CD1464B5B6803F48033002B16D1434B91
:1024C0001B6803F00203002B05D07B681B69012BFE
:1024D00001D00123C0E13D4B1B6823F0F8027B686B
:1024E0005B69DB00394913430B603AE07B681B6989
:1024F000002B20D0364B01221A60FFF7BFFB38615A
:1025000008E0FFF7BBFB02463B69D31A022B01D957
:102510000323A1E12D4B1B6803F00203002BF0D035
:102520002A4B1B6823F0F8027B685B69DB002749B4
:1025300013430B6015E0264B00221A60FFF79EFB49
:10254000386108E0FFF79AFB02463B69D31A022B79
:1025500001D9032380E11D4B1B6803F00203002B0C
:10256000F0D17B681B6803F00803002B3AD07B682E
:102570009B69002B19D0174B01221A60FFF77EFBD5
:10258000386108E0FFF77AFB02463B69D31A022B59
:1025900001D9032360E10D4B5B6A03F00203002BBA
:1025A000F0D0012000F008FB1CE00A4B00221A606A
:1025B000FFF764FB38610FE0FFF760FB02463B6901
:1025C000D31A022B08D9032346E100BF00100240B2
:1025D0000000424280044242924B5B6A03F00203D5
:1025E000002BE9D17B681B6803F00403002B00F08B
:1025F000A6800023FB758B4BDB6903F08053002B17
:102600000DD1884BDB69874A43F08053D361854BFA
:10261000DB6903F08053BB60BB680123FB75824B11
:102620001B6803F48073002B18D17F4B1B687E4A14
:1026300043F480731360FFF721FB386108E0FFF774
:102640001DFB02463B69D31A642B01D9032303E126
:10265000754B1B6803F48073002BF0D07B68DB683C
:10266000012B06D16F4B1B6A6E4A43F001031362C4
:102670002DE07B68DB68002B0CD16A4B1B6A694A32
:1026800023F001031362674B1B6A664A23F00403BD
:1026900013621CE07B68DB68052B0CD1614B1B6A65
:1026A000604A43F0040313625E4B1B6A5D4A43F0C9
:1026B000010313620BE05B4B1B6A5A4A23F00103D0
:1026C0001362584B1B6A574A23F0040313627B685A
:1026D000DB68002B15D0FFF7D1FA38610AE0FFF76D
:1026E000CDFA02463B69D31A41F28832934201D9AE
:1026F0000323B1E04B4B1B6A03F00203002BEED027
:1027000014E0FFF7BBFA38610AE0FFF7B7FA0246B8
:102710003B69D31A41F28832934201D903239BE0EB
:10272000404B1B6A03F00203002BEED1FB7D012B13
:1027300005D13C4BDB693B4A23F08053D3617B6876
:10274000DB69002B00F08780364B5B6803F00C03DD
:10275000082B61D07B68DB69022B46D1334B00220A
:102760001A60FFF78BFA386108E0FFF787FA024634
:102770003B69D31A022B01D903236DE0294B1B6857
:1027800003F00073002BF0D17B681B6AB3F5803F28
:1027900008D1244B5B6823F400327B689B68214995
:1027A00013434B601F4B5B6823F474127B68196AF8
:1027B0007B685B6A0B431B4913434B601B4B012235
:1027C0001A60FFF75BFA386108E0FFF757FA024634
:1027D0003B69D31A022B01D903233DE0114B1B683F
:1027E00003F00073002BF0D035E0104B00221A608C
:1027F000FFF744FA386108E0FFF740FA02463B6908
:10280000D31A022B01D9032326E0064B1B6803F0E1
:102810000073002BF0D11EE07B68DB69012B07D130
:10282000012319E0001002400070004060004242A5
:102830000B4B5B68FB60FB6803F480327B681B6AB0
:102840009A4206D1FB6803F470127B685B6A9A4275
:1028500001D0012300E0002318461837BD4680BD93
:102860000010024080B584B000AF786039607B68AA
:10287000002B01D10123D0E06A4B1B6803F0070352
:102880003A689A4210D9674B1B6823F007026549E2
:102890003B6813430B60634B1B6803F007033A6804
:1028A0009A4201D00123B8E07B681B6803F0020361
:1028B000002B20D07B681B6803F00403002B05D09D
:1028C000594B5B68584A43F4E06353607B681B686C
:1028D00003F00803002B05D0534B5B68524A43F4C6
:1028E00060535360504B5B6823F0F0027B689B6839
:1028F0004D4913434B607B681B6803F00103002BB9
:1029000040D07B685B68012B07D1474B1B6803F401
:102910000033002B15D101237FE07B685B68022B1D
:1029200007D1414B1B6803F00073002B09D1012331
:1029300073E03D4B1B6803F00203002B01D1012320
:102940006BE0394B5B6823F003027B685B683649B8
:1029500013434B60FFF792F9F8600AE0FFF78EF936
:102960000246FB68D31A41F28832934201D903230D
:1029700053E02D4B5B6803F00C027B685B689B00A7
:102980009A42EBD1274B1B6803F007033A689A423F
:1029900010D2244B1B6823F0070222493B681343E3
:1029A0000B60204B1B6803F007033A689A4201D082
:1029B000012332E07B681B6803F00403002B08D07E
:1029C000194B5B6823F4E0627B68DB6816491343AC
:1029D0004B607B681B6803F00803002B09D0124B87
:1029E0005B6823F460527B681B69DB000E4913436C
:1029F0004B6000F021F802460B4B5B681B0903F0AB
:102A00000F030A49CB5C22FA03F3094A1360094B0E
:102A10001B681846FEF75EFF002318461037BD46B8
:102A200080BD00BF002002400010024060D90008B5
:102A3000000000200400002090B48AB000AF294BB1
:102A40003C1D0FCB84E80F0040F201233B800023A4
:102A5000FB610023BB6100237B6200237B610023B9
:102A60003B62214B5B68FB61FB6903F00C03042BA9
:102A700002D0082B03D02BE01C4B3B622BE0FB6900
:102A80009B0C03F00F0328333B4413F8243C7B6179
:102A9000FB6903F48033002B12D0134B5B685B0C93
:102AA00003F0010328333B4413F8283CBB617B69E6
:102AB0000E4A03FB02F2BB69B2FBF3F37B6204E054
:102AC0007B690B4A02FB03F37B627B6A3B6202E099
:102AD000064B3B6200BF3B6A18462837BD4690BC98
:102AE000704700BFDCD800080010024000127A00D6
:102AF00000093D0080B400AF024B1B681846BD467C
:102B000080BC70470000002080B500AFFFF7F2FFE7
:102B10000246054B5B681B0A03F007030349CB5CC5
:102B200022FA03F3184680BD0010024070D9000855
:102B300080B500AFFFF7DEFF0246054B5B68DB0A9E
:102B400003F007030349CB5C22FA03F3184680BD68
:102B50000010024070D9000880B483B000AF7860E4
:102B600039607B680F221A60114B5B6803F0030227
:102B70007B685A600E4B5B6803F0F0027B689A60DA
:102B80000B4B5B6803F4E0627B68DA60084B5B68C0
:102B9000DB0803F4E0627B681A61064B1B6803F0F4
:102BA00007023B681A6000BF0C37BD4680BC704707
:102BB000001002400020024080B485B000AF786071
:102BC0000A4B1B680A4AA2FB03235B0A7A6802FBD2
:102BD00003F3FB6000BFFB685A1EFA60002BF9D1BB
:102BE00000BF00BF1437BD4680BC70470000002006
:102BF000D34D621080B582B000AF78607B68002B47
:102C000001D1012376E07B685B6A002B08D17B68E9
:102C10005B68B3F5827F09D07B680022DA6105E04A
:102C20007B6800221A617B6800225A617B6800225F
:102C30009A627B6893F85130DBB2002B06D17B6837
:102C4000002283F850207868FEF784FD7B6802221A
:102C500083F851207B681B681A687B681B6822F028
:102C600040021A607B685B6803F482727B689B6831
:102C700003F404431A437B68DB6803F400631A43DC
:102C80007B681B6903F002031A437B685B6903F0EE
:102C900001031A437B689B6903F400731A437B6842
:102CA000DB6903F038031A437B681B6A03F0800377
:102CB00042EA03017B689B6A03F400527B681B684D
:102CC0000A431A607B689B691A0C7B681B6802F0D8
:102CD00004025A607B681B68DA697B681B6822F40F
:102CE0000062DA617B6800225A657B68012283F802
:102CF0005120002318460837BD4680BD80B588B0F6
:102D000000AFF860B9603B601346FB800023FB779F
:102D1000FB6893F85030012B01D1022326E1FB68B8
:102D2000012283F85020FEF7A9FFB861FB88FB82DF
:102D3000FB6893F85130DBB2012B02D00223FB7702
:102D40000BE1BB68002B02D0FB88002B02D10123D2
:102D5000FB7702E1FB68032283F85120FB68002225
:102D60005A65FB68BA681A63FB68FA889A86FB683A
:102D7000FA88DA86FB6800229A63FB6800229A8749
:102D8000FB680022DA87FB6800225A64FB68002295
:102D90001A64FB689B68B3F5004F0FD1FB681B6892
:102DA0001A68FB681B6822F040021A60FB681B6807
:102DB0001A68FB681B6842F480421A60FB681B6853
:102DC0001B6803F04003402B07D0FB681B681A68A0
:102DD000FB681B6842F040021A60FB68DB68B3F5D1
:102DE000006F4BD1FB685B68002B02D0FB8A012B84
:102DF0003ED1FB681B6B1A88FB681B68DA60FB68B6
:102E00001B6B9A1CFB681A63FB68DB8E9BB2013B51
:102E10009AB2FB68DA862BE0FB681B689B6803F0BC
:102E20000203022B12D1FB681B6B1A88FB681B681C
:102E3000DA60FB681B6B9A1CFB681A63FB68DB8E0D
:102E40009BB2013B9AB2FB68DA8611E0FEF716FFEF
:102E50000246BB69D31A3A689A4203D83B68B3F179
:102E6000FF3F02D13B68002B02D10323FB7774E0C4
:102E7000FB68DB8E9BB2002BCED14CE0FB685B681D
:102E8000002B02D0FB8A012B40D1FB681A6BFB6838
:102E90001B680C3312781A70FB681B6B5A1CFB689A
:102EA0001A63FB68DB8E9BB2013B9AB2FB68DA8641
:102EB0002CE0FB681B689B6803F00203022B13D114
:102EC000FB681A6BFB681B680C3312781A70FB687E
:102ED0001B6B5A1CFB681A63FB68DB8E9BB2013BC1
:102EE0009AB2FB68DA8611E0FEF7C8FE0246BB69BB
:102EF000D31A3A689A4203D83B68B3F1FF3F02D134
:102F00003B68002B02D10323FB7726E0FB68DB8EB6
:102F10009BB2002BCDD1BA693968F86800F0C4FBC8
:102F20000346002B02D0FB6820225A65FB689B6891
:102F3000002B0AD100233B61FB681B68DB683B6107
:102F4000FB681B689B683B613B69FB685B6D002B02
:102F500002D00123FB7700E000BFFB68012283F869
:102F60005120FB68002283F85020FB7F1846203751
:102F7000BD4680BD80B588B002AFF860B9603B60E7
:102F80001346FB800023FB75FB685B68B3F5827F0B
:102F900012D1FB689B68002B0ED1FB68042283F8DA
:102FA0005120FA883B6800931346BA68B968F868FC
:102FB00000F0F1F80346EAE0FB6893F85030012B8B
:102FC00001D10223E3E0FB68012283F85020FEF7E1
:102FD00055FE3861FB6893F85130DBB2012B02D00B
:102FE0000223FB75CAE0BB68002B02D0FB88002BD4
:102FF00002D10123FB75C1E0FB68042283F8512054
:10300000FB6800225A65FB68BA689A63FB68FA8815
:103010009A87FB68FA88DA87FB6800221A63FB68E4
:1030200000229A86FB680022DA86FB6800221A6476
:10303000FB6800225A64FB689B68B3F5004F0FD110
:10304000FB681B681A68FB681B6822F040021A6064
:10305000FB681B681A68FB681B6822F480421A60D0
:10306000FB681B681B6803F04003402B07D0FB681C
:103070001B681A68FB681B6842F040021A60FB6814
:10308000DB68002B62D12EE0FB681B689B6803F0B5
:103090000103012B15D1FB681B6803F10C02FB68CF
:1030A0009B6B1278D2B21A70FB689B6B5A1CFB6840
:1030B0009A63FB68DB8F9BB2013B9AB2FB68DA87AD
:1030C00011E0FEF7DBFD02463B69D31A3A689A42EB
:1030D00003D83B68B3F1FF3F02D13B68002B02D11C
:1030E0000323FB754AE0FB68DB8F9BB2002BCBD13F
:1030F00031E0FB681B689B6803F00103012B13D1CF
:10310000FB681B68DA68FB689B6B92B21A80FB68ED
:103110009B6B9A1CFB689A63FB68DB8F9BB2013B3D
:103120009AB2FB68DA8711E0FEF7A8FD02463B6918
:10313000D31A3A689A4203D83B68B3F1FF3F02D1F1
:103140003B68002B02D10323FB7517E0FB68DB8F84
:103150009BB2002BCDD13A693968F86800F052FA79
:103160000346002B02D0FB6820225A65FB685B6D8A
:10317000002B02D00123FB7500E000BFFB68012299
:1031800083F85120FB68002283F85020FB7D18460D
:103190001837BD4680BD80B58CB000AFF860B9600F
:1031A0007A607B800123FB62002387F82B30FB6869
:1031B00093F85030012B01D102238AE1FB680122F0
:1031C00083F85020FEF75AFD7862FB6893F851307F
:1031D00087F82330FB685B68FB617B887B8397F80B
:1031E0002330012B0FD0FB69B3F5827F07D1FB6839
:1031F0009B68002B03D197F82330042B03D00223C4
:1032000087F82B305BE1BB68002B05D07B68002B77
:1032100002D07B88002B03D1012387F82B304EE1AD
:10322000FB6893F85130DBB2042B03D0FB68052216
:1032300083F85120FB6800225A65FB687A689A631C
:10324000FB687A88DA87FB687A889A87FB68BA68AD
:103250001A63FB687A88DA86FB687A889A86FB6844
:1032600000221A64FB6800225A64FB681B681B6812
:1032700003F04003402B07D0FB681B681A68FB680B
:103280001B6842F040021A60FB68DB68B3F5006F10
:1032900078D1FB685B68002B02D07B8B012B66D159
:1032A000FB681B6B1A88FB681B68DA60FB681B6B8A
:1032B0009A1CFB681A63FB68DB8E9BB2013B9AB2D7
:1032C000FB68DA8653E0FB681B689B6803F0020327
:1032D000022B1BD1FB68DB8E9BB2002B16D0FB6A46
:1032E000012B13D1FB681B6B1A88FB681B68DA6023
:1032F000FB681B6B9A1CFB681A63FB68DB8E9BB236
:10330000013B9AB2FB68DA860023FB62FB681B680C
:103310009B6803F00103012B19D1FB68DB8F9BB283
:10332000002B14D0FB681B68DA68FB689B6B92B2B9
:103330001A80FB689B6B9A1CFB689A63FB68DB8FA7
:103340009BB2013B9AB2FB68DA870123FB62FEF76E
:1033500095FC02467B6AD31ABA6B9A4207D8BB6BBC
:10336000B3F1FF3F03D0032387F82B30A7E0FB68BE
:10337000DB8E9BB2002BA6D1FB68DB8F9BB2002BB0
:10338000A1D17CE0FB685B68002B02D07B8B012B1A
:103390006BD1FB681A6BFB681B680C3312781A70D0
:1033A000FB681B6B5A1CFB681A63FB68DB8E9BB2C5
:1033B000013B9AB2FB68DA8657E0FB681B689B68A2
:1033C00003F00203022B1CD1FB68DB8E9BB2002BA7
:1033D00017D0FB6A012B14D1FB681A6BFB681B68C2
:1033E0000C3312781A70FB681B6B5A1CFB681A634B
:1033F000FB68DB8E9BB2013B9AB2FB68DA86002346
:10340000FB62FB681B689B6803F00103012B19D169
:10341000FB68DB8F9BB2002B14D0FB681B68DA685B
:10342000FB689B6BD2B21A70FB689B6B5A1CFB68E3
:103430009A63FB68DB8F9BB2013B9AB2FB68DA8729
:103440000123FB62FEF71AFC02467B6AD31ABA6BB1
:103450009A4203D8BB6BB3F1FF3F02D1BB6B002B89
:1034600003D1032387F82B3029E0FB68DB8E9BB266
:10347000002BA2D1FB68DB8F9BB2002B9DD17A6A17
:10348000B96BF86800F010F90346002B06D0012351
:1034900087F82B30FB6820225A6510E0FB689B6898
:1034A000002B0BD100237B61FB681B68DB687B6111
:1034B000FB681B689B687B617B6900E000BFFB6861
:1034C000012283F85120FB68002283F8502097F8EE
:1034D0002B3018463037BD4680BD80B483B000AF76
:1034E00078607B6893F85130DBB218460C37BD46E4
:1034F00080BC704780B588B000AFF860B9603B60B1
:103500001346FB71FEF7BAFB0246BB6A9B1A3A6888
:103510001344FB61FEF7B2FBB861394B1B685B01DA
:103520001B0DFA6902FB03F37B6154E03B68B3F1C6
:10353000FF3F50D0FEF7A2FB0246BB69D31AFA69DF
:103540009A4202D9FB69002B3DD1FB681B685A687F
:10355000FB681B6822F0E0025A60FB685B68B3F509
:10356000827F11D1FB689B68B3F5004F04D0FB68E4
:103570009B68B3F5806F07D1FB681B681A68FB680E
:103580001B6822F040021A60FB689B6AB3F5005F7B
:103590000FD1FB681B681A68FB681B6822F4005295
:1035A0001A60FB681B681A68FB681B6842F40052CB
:1035B0001A60FB68012283F85120FB68002283F81F
:1035C0005020032317E07B69002B01D10023FB610E
:1035D0007B69013B7B61FB681B689A68BB68134091
:1035E000BA689A420CBF01230023DBB21A46FB796A
:1035F0009A429BD1002318462037BD4680BD00BFAC
:103600000000002080B586B002AFF860B9607A6033
:10361000FB685B68B3F5827F11D1FB689B68B3F5EB
:10362000004F04D0FB689B68B3F5806F07D1FB683F
:103630001B681A68FB681B6822F040021A60FB686E
:103640005B68B3F5827F17D1FB689B68B3F5806F29
:1036500012D17B680093BB6800220121F868FFF754
:1036600049FF0346002B1AD0FB685B6D43F0200234
:10367000FB685A65032313E07B680093BB68002254
:103680008021F868FFF736FF0346002B07D0FB6860
:103690005B6D43F02002FB685A65032300E00023C2
:1036A00018461037BD4680BD80B586B002AFF860C1
:1036B000B9607A607B680093BB6800228021F8685B
:1036C000FFF718FF0346002B07D0FB685B6D43F044
:1036D0002002FB685A65032300E0002318461037D8
:1036E000BD4680BD80B582B000AF78607B68002B9E
:1036F00001D1012341E07B6893F83D30DBB2002B20
:1037000006D17B68002283F83C207868FEF76CF8CD
:103710007B68022283F83D207B681A687B6804334B
:103720001946104600F070FA7B68012283F84620A3
:103730007B68012283F83E207B68012283F83F20CA
:103740007B68012283F840207B68012283F84120B6
:103750007B68012283F842207B68012283F84320A2
:103760007B68012283F844207B68012283F845208E
:103770007B68012283F83D20002318460837BD46A8
:1037800080BD000080B485B000AF78607B6893F89E
:103790003D30DBB2012B01D001233AE07B680222ED
:1037A00083F83D207B681B68DA687B681B6842F001
:1037B0000102DA607B681B68184A93420ED07B686E
:1037C0001B68B3F1804F09D07B681B68144A934291
:1037D00004D07B681B68134A934211D17B681B6835
:1037E0009B6803F00703FB60FB68062B10D07B6827
:1037F0001B681A687B681B6842F001021A6007E0C8
:103800007B681B681A687B681B6842F001021A60BB
:10381000002318461437BD4680BC7047002C014079
:10382000000400400008004080B582B000AF78601E
:103830007B681B681B6903F00203022B22D17B68A3
:103840001B68DB6803F00203022B1BD17B681B683B
:103850006FF002021A617B6801221A777B681B688D
:103860009B6903F00303002B03D0786800F0B1F9E3
:1038700005E0786800F0A4F9786800F0B3F97B6897
:1038800000221A777B681B681B6903F00403042B72
:1038900022D17B681B68DB6803F00403042B1BD177
:1038A0007B681B686FF004021A617B6802221A773A
:1038B0007B681B689B6903F44073002B03D0786816
:1038C00000F087F905E0786800F07AF9786800F090
:1038D00089F97B6800221A777B681B681B6903F0F3
:1038E0000803082B22D17B681B68DB6803F0080300
:1038F000082B1BD17B681B686FF008021A617B687C
:1039000004221A777B681B68DB6903F00303002B32
:1039100003D0786800F05DF905E0786800F050F9B0
:10392000786800F05FF97B6800221A777B681B6873
:103930001B6903F01003102B22D17B681B68DB6826
:1039400003F01003102B1BD17B681B686FF0100273
:103950001A617B6808221A777B681B68DB6903F4AD
:103960004073002B03D0786800F033F905E07868E5
:1039700000F026F9786800F035F97B6800221A77A4
:103980007B681B681B6903F00103012B0ED17B6868
:103990001B68DB6803F00103012B07D17B681B6800
:1039A0006FF001021A617868FDF77EFE7B681B6884
:1039B0001B6903F08003802B0ED17B681B68DB68DA
:1039C00003F08003802B07D17B681B686FF08002B7
:1039D0001A61786800F077FA7B681B681B6903F04E
:1039E0004003402B0ED17B681B68DB6803F040036B
:1039F000402B07D17B681B686FF040021A61786822
:103A000000F0F9F87B681B681B6903F02003202B8A
:103A10000ED17B681B68DB6803F02003202B07D1E5
:103A20007B681B686FF020021A61786800F042FA28
:103A300000BF0837BD4680BD80B584B000AF786058
:103A400039607B6893F83C30012B01D10223B3E04D
:103A50007B68012283F83C207B68022283F83D20AA
:103A60007B681B689B68FB60FB6823F07703FB6047
:103A7000FB6823F47F43FB607B681B68FA689A60ED
:103A80003B681B68B3F5005F3ED0B3F5005F00F202
:103A90008780B3F5805F00F08580B3F5805F7FD8C5
:103AA000702B1AD0702B7BD8602B50D0602B77D81E
:103AB000502B3CD0502B73D8402B58D0402B6FD874
:103AC000302B64D0302B6BD8202B60D0202B67D8C4
:103AD000002B5CD0102B5AD062E07B6818683B68E2
:103AE00099683B685A683B68DB6800F066F97B6858
:103AF0001B689B68FB60FB6843F07703FB607B6897
:103B00001B68FA689A604EE07B6818683B689968A1
:103B10003B685A683B68DB6800F04FF97B681B68BC
:103B20009A687B681B6842F480429A603BE07B683D
:103B300018683B6859683B68DB681A4600F0C6F8AD
:103B40007B681B685021184600F01DF92BE07B684C
:103B500018683B6859683B68DB681A4600F0E4F86F
:103B60007B681B686021184600F00DF91BE07B683C
:103B700018683B6859683B68DB681A4600F0A6F88D
:103B80007B681B684021184600F0FDF80BE07B685D
:103B90001A683B681B681946104600F0F4F802E00A
:103BA00000BF00E000BF7B68012283F83D207B68F6
:103BB000002283F83C20002318461037BD4680BD04
:103BC00080B483B000AF786000BF0C37BD4680BCC6
:103BD000704780B483B000AF786000BF0C37BD463B
:103BE00080BC704780B483B000AF786000BF0C37F2
:103BF000BD4680BC704780B483B000AF786000BF22
:103C00000C37BD4680BC704780B485B000AF78608B
:103C100039607B681B68FB607B68294A93420BD044
:103C20007B68B3F1804F07D07B68264A934203D06C
:103C30007B68254A934208D1FB6823F07003FB6040
:103C40003B685B68FA681343FB607B681C4A9342DD
:103C50000BD07B68B3F1804F07D07B68194A934241
:103C600003D07B68184A934208D1FB6823F4407361
:103C7000FB603B68DB68FA681343FB60FB6823F07A
:103C800080023B685B691343FB607B68FA681A60DB
:103C90003B689A687B68DA623B681A687B689A625C
:103CA0007B68074A934203D13B681A697B681A63B1
:103CB0007B6801225A6100BF1437BD4680BC704743
:103CC000002C0140000400400008004080B487B090
:103CD00000AFF860B9607A60FB681B6A7B61FB68C3
:103CE0001B6A23F00102FB681A62FB689B693B6157
:103CF0003B6923F0F0033B617B681B013A69134386
:103D00003B617B6923F00A037B617A69BB681343DB
:103D10007B61FB683A699A61FB687A691A6200BF45
:103D20001C37BD4680BC704780B487B000AFF860D8
:103D3000B9607A60FB681B6A23F01002FB681A62A4
:103D4000FB689B697B61FB681B6A3B617B6923F4B1
:103D500070437B617B681B037A6913437B613B691A
:103D600023F0A0033B61BB681B013A6913433B612D
:103D7000FB687A699A61FB683A691A6200BF1C376E
:103D8000BD4680BC704780B485B000AF78603960B4
:103D90007B689B68FB60FB6823F07003FB603A68FC
:103DA000FB68134343F00703FB607B68FA689A6083
:103DB00000BF1437BD4680BC704780B487B000AFE9
:103DC000F860B9607A603B60FB689B687B617B69E7
:103DD00023F47F437B613B681A027B681A43BB680C
:103DE00013437A6913437B61FB687A699A6000BF69
:103DF0001C37BD4680BC704780B485B000AF78608A
:103E000039607B6893F83C30012B01D1022346E0F6
:103E10007B68012283F83C207B68022283F83D20E6
:103E20007B681B685B68FB607B681B689B68BB608A
:103E3000FB6823F07003FB603B681B68FA68134360
:103E4000FB607B681B68FA685A607B681B68164ACF
:103E500093420ED07B681B68B3F1804F09D07B681A
:103E60001B68124A934204D07B681B68104A934235
:103E70000CD1BB6823F08003BB603B685B68BA6809
:103E80001343BB607B681B68BA689A607B68012239
:103E900083F83D207B68002283F83C2000231846ED
:103EA0001437BD4680BC7047002C01400004004020
:103EB0000008004080B483B000AF786000BF0C37CA
:103EC000BD4680BC704780B483B000AF786000BF4F
:103ED0000C37BD4680BC704780B582B000AF7860BB
:103EE0007B68002B01D101233FE07B6893F83D30D4
:103EF000DBB2002B06D17B68002283F83C20786877
:103F0000FDF796FC7B68242283F83D207B681B68C4
:103F1000DA687B681B6822F40052DA60786800F087
:103F200085FC7B681B681A697B681B6822F49042D9
:103F30001A617B681B685A697B681B6822F02A0239
:103F40005A617B681B68DA687B681B6842F4005220
:103F5000DA607B6800221A647B68202283F83D20A7
:103F60007B68202283F83E20002318460837BD4690
:103F700080BD80B58AB002AFF860B9603B6013467F
:103F8000FB8000237B61FB6893F83D30DBB2202B84
:103F90007CD1BB68002B02D0FB88002B01D1012310
:103FA00075E0FB6893F83C30012B01D102236EE0F1
:103FB000FB68012283F83C20FB6800221A64FB683E
:103FC000212283F83D20FDF759FE7861FB68FA88CD
:103FD0009A84FB68FA88DA84FB689B68B3F5805F93
:103FE00008D1FB681B69002B04D10023FB61BB686F
:103FF000BB6103E0BB68FB610023BB61FB6800227F
:1040000083F83C202AE03B6800937B6900228021F2
:10401000F86800F038FA0346002B01D0032336E09D
:10402000FB69002B0BD1BB691B881A46FB681B6818
:10403000C2F308025A60BB690233BB6107E0FB6947
:104040001A78FB681B685A60FB690133FB61FB68E7
:10405000DB8C9BB2013B9AB2FB68DA84FB68DB8C99
:104060009BB2002BCFD13B6800937B69002240219B
:10407000F86800F008FA0346002B01D0032306E09D
:10408000FB68202283F83D20002300E0022318462D
:104090002037BD4680BD80B584B000AFF860B96000
:1040A0001346FB80FB6893F83E30DBB2202B1DD11A
:1040B000BB68002B02D0FB88002B01D1012316E046
:1040C000FB6893F83C30012B01D102230FE0FB6821
:1040D000012283F83C20FB6800221A63FB881A4601
:1040E000B968F86800F019FA034600E002231846A0
:1040F0001037BD4680BD000080B58AB000AF786043
:104100007B681B681B687B627B681B68DB683B62A3
:104110007B681B685B69FB610023BB6100237B61DB
:104120007B6A03F00F03BB61BB69002B0DD17B6A77
:1041300003F02003002B08D03B6A03F02003002B80
:1041400003D0786800F0C9FA7BE1BB69002B00F06E
:10415000B180FB6903F00103002B05D13B6A03F436
:104160009073002B00F0A6807B6A03F00103002B04
:104170000AD03B6A03F48073002B05D07B681B6C6C
:1041800043F001027B681A647B6A03F00403002B8E
:104190000AD0FB6903F00103002B05D07B681B6C80
:1041A00043F002027B681A647B6A03F00203002B6F
:1041B0000AD0FB6903F00103002B05D07B681B6C60
:1041C00043F004027B681A647B6A03F00803002B47
:1041D0000FD03B6A03F02003002B04D1FB6903F0EE
:1041E0000103002B05D07B681B6C43F008027B6841
:1041F0001A647B681B6C002B00F01E817B6A03F045
:104200002003002B07D03B6A03F02003002B02D0D1
:10421000786800F062FA7B681B685B6903F0400312
:10422000002B14BF01230023DBB27B617B681B6C76
:1042300003F00803002B02D17B69002B31D0786892
:1042400000F0A4F97B681B685B6903F04003002B56
:1042500023D07B681B685A697B681B6822F0400288
:104260005A617B689B6B002B13D07B689B6B764AF3
:104270005A637B689B6B1846FDF748FE0346002B8C
:1042800016D07B689B6B5B6B7A68926B1046984785
:104290000EE0786800F0E3F80AE0786800F0DFF8F4
:1042A00006E0786800F0DBF87B6800221A64C3E05F
:1042B00000BFC1E07B681B6B012B40F0A1807B6AD3
:1042C00003F01003002B00F09B803B6A03F0100307
:1042D000002B00F095800023FB607B681B681B6847
:1042E000FB607B681B685B68FB60FB687B681B6826
:1042F0005B6903F04003002B4ED07B689B6B1B680F
:104300005B683B823B8A002B00F098807B689B8D2A
:104310003A8A9A4280F092807B683A8ADA857B6892
:104320009B6B9B69202B2BD07B681B68DA687B68B2
:104330001B6822F48072DA607B681B685A697B68AC
:104340001B6822F001025A617B681B685A697B680E
:104350001B6822F040025A617B68202283F83E20CD
:104360007B6800221A637B681B68DA687B681B68BD
:1043700022F01002DA607B689B6B1846FDF78BFD1C
:104380007B689A8D7B68DB8D9BB2D31A9BB21946F2
:10439000786800F06DF851E07B689A8D7B68DB8D62
:1043A0009BB2D31A7B827B68DB8D9BB2002B47D0FC
:1043B0007B8A002B44D07B681B68DA687B681B68AB
:1043C00022F49072DA607B681B685A697B681B680C
:1043D00022F001025A617B68202283F83E207B682C
:1043E00000221A637B681B68DA687B681B6822F00E
:1043F0001002DA607B8A1946786800F039F81FE00D
:104400007B6A03F08003002B08D03B6A03F0800333
:10441000002B03D0786800F0F9F812E07B6A03F013
:104420004003002B0DD03B6A03F04003002B08D063
:10443000786800F03AF904E000BF02E000BF00E055
:1044400000BF2837BD4680BDE545000880B483B075
:1044500000AF786000BF0C37BD4680BC704780B4A9
:1044600083B000AF786000BF0C37BD4680BC70479A
:1044700080B483B000AF78600B467B8000BF0C3700
:10448000BD4680BC704780B584B000AFF860B960AD
:104490003B601346FB712CE0BB69B3F1FF3F28D0B2
:1044A000BB69002B07D0FDF7E9FB02463B68D31A36
:1044B000BA699A421DD2FB681B68DA68FB681B6800
:1044C00022F4D072DA60FB681B685A69FB681B68CB
:1044D00022F001025A61FB68202283F83D20FB682C
:1044E000202283F83E20FB68002283F83C2003232F
:1044F0000FE0FB681B681A68BB681340BA689A42F1
:104500000CBF01230023DBB21A46FB799A42C3D0C9
:10451000002318461037BD4680BD80B485B000AF7B
:10452000F860B9601346FB80FB68BA689A62FB6862
:10453000FA889A85FB68FA88DA85FB6800221A6493
:10454000FB68222283F83E20FB68002283F83C208F
:10455000FB681B68DA68FB681B6842F48072DA60EB
:10456000FB681B685A69FB681B6842F001025A61CC
:10457000FB681B68DA68FB681B6842F02002DA609F
:10458000002318461437BD4680BC704780B483B002
:1045900000AF78607B681B68DA687B681B6822F470
:1045A0009072DA607B681B685A697B681B6822F02E
:1045B00001025A617B681B6B012B07D17B681B686A
:1045C000DA687B681B6822F01002DA607B682022C0
:1045D00083F83E207B6800221A6300BF0C37BD467B
:1045E00080BC704780B584B000AF78607B685B6A40
:1045F000FB60FB680022DA85FB680022DA84F86839
:10460000FFF72DFF00BF1037BD4680BD80B485B0D9
:1046100000AF78607B6893F83D30DBB2212B3ED150
:104620007B689B68B3F5805F14D17B681B69002BA6
:1046300010D17B681B6AFB60FB681B881A467B688D
:104640001B68C2F308025A607B681B6A9A1C7B686D
:104650001A6208E07B681B6A591C7A6811621A7832
:104660007B681B685A607B68DB8C9BB2013B9BB20A
:104670007A681946D184002B0FD17B681B68DA68F1
:104680007B681B6822F08002DA607B681B68DA684E
:104690007B681B6842F04002DA60002300E00223DE
:1046A00018461437BD4680BC704780B582B000AF55
:1046B00078607B681B68DA687B681B6822F04002C0
:1046C000DA607B68202283F83D207868FFF7BEFE21
:1046D000002318460837BD4680BD80B586B000AFC0
:1046E00078607B6893F83E30DBB2222B40F09980F3
:1046F0007B689B68B3F5805F17D17B681B69002BD3
:1047000013D100237B617B689B6A3B617B681B68DC
:104710005B689BB2C3F308039AB23B691A807B685B
:104720009B6A9A1C7B689A6226E07B689B6A7B6125
:1047300000233B617B689B68B3F5805F07D07B6893
:104740009B68002B0AD17B681B69002B06D17B6814
:104750001B685B68DAB27B691A7008E07B681B68CB
:104760005B68DBB203F07F03DAB27B691A707B68A7
:104770009B6A5A1C7B689A627B68DB8D9BB2013B0B
:104780009BB27A681946D185002B48D17B681B689B
:10479000DA687B681B6822F02002DA607B681B689D
:1047A000DA687B681B6822F48072DA607B681B68B9
:1047B0005A697B681B6822F001025A617B682022DB
:1047C00083F83E207B681B6B012B23D17B68002282
:1047D0001A637B681B68DA687B681B6822F010022A
:1047E000DA607B681B681B6803F01003102B0AD18A
:1047F0000023FB607B681B681B68FB607B681B6891
:104800005B68FB60FB687B689B8D19467868FFF7E7
:104810002FFE02E07868FCF7DFF9002302E00023B6
:1048200000E0022318461837BD4680BD80B584B02D
:1048300000AF78607B681B681B6923F440517B687C
:10484000DA687B681B680A431A617B689A687B6830
:104850001B691A437B685B691343BB607B681B68F9
:10486000DB6823F4B05323F00C037A681268B9684C
:104870000B43D3607B681B685B6923F440717B68E2
:104880009A697B681B680A435A617B681B682C4ADB
:10489000934203D1FEF74CF9F86002E0FEF734F9D9
:1048A000F860FA6813469B0013449A001A447B6828
:1048B0005B689B00B2FBF3F3224AA2FB03235B0974
:1048C0001901FA6813469B0013449A001A447B6846
:1048D0005B689B00B2FBF3F21A4BA3FB02035B097C
:1048E000642000FB03F3D31A1B013233154AA2FBE9
:1048F00003235B0903F0F0031944FA6813469B0095
:1049000013449A001A447B685B689B00B2FBF3F285
:104910000C4BA3FB02035B09642000FB03F3D31AD7
:104920001B013233074AA2FB03235B0903F00F028A
:104930007B681B680A449A6000BF1037BD4680BD83
:10494000003801401F85EB5180B582B000AF0346AF
:10495000FB80FB881846FDF79BF900BF0837BD4672
:1049600080BD80B582B000AF78600B46FB70134607
:10497000BB70BB78002B08D17B6858687B681B89AB
:1049800000221946FDF7BCFC0AE0BB78012B07D1D9
:104990007B6858687B681B8901221946FDF7B0FCCB
:1049A0007B6858697B68198BFB7803F00103DBB2E5
:1049B0001A46FDF7A5FC7B68D8697B68198CFB78E3
:1049C0005B08DBB203F00103DBB21A46FDF798FC8B
:1049D0007B68586A7B68198DFB789B08DBB203F013
:1049E0000103DBB21A46FDF78BFC7B68D86A7B6853
:1049F000198EFB78DB08DBB203F00103DBB21A4649
:104A0000FDF77EFC7B68586B7B68198FFB781B0970
:104A1000DBB203F00103DBB21A46FDF771FC7B68E1
:104A2000D86B7B68B3F84010FB785B09DBB203F00E
:104A30000103DBB21A46FDF763FC7B68586C7B68A8
:104A4000B3F84810FB789B09DBB203F00103DBB23B
:104A50001A46FDF755FC7B68D86C7B68B3F850109C
:104A6000FB78DB09DBB21A46FDF74AFC7B68D868A5
:104A70007B681B8A00221946FDF742FC0120FFF7E4
:104A800063FF7B68D8687B681B8A01221946FDF7A3
:104A900037FC0120FFF758FF7B68D8687B681B8ACA
:104AA00000221946FDF72CFC0120FFF74DFF00BF47
:104AB0000837BD4680BD80B584B000AF78600B4636
:104AC000FB701346BB70FB781B09FB73FB78BB7351
:104AD000BB78002B08D17B6858687B681B89002253
:104AE0001946FDF70DFC0AE0BB78012B07D17B6866
:104AF00058687B681B8901221946FDF701FC7B6819
:104B0000586B7B68198FFB7B03F00103DBB21A46FD
:104B1000FDF7F6FB7B68D86B7B68B3F84010FB7B36
:104B20005B08DBB203F00103DBB21A46FDF7E8FBDA
:104B30007B68586C7B68B3F84810FB7B9B08DBB242
:104B400003F00103DBB21A46FDF7DAFB7B68D86C91
:104B50007B68B3F85010FB7BDB08DBB203F001038A
:104B6000DBB21A46FDF7CCFB7B68D8687B681B8AF2
:104B700000221946FDF7C4FB0120FFF7E5FE7B6824
:104B8000D8687B681B8A01221946FDF7B9FB012012
:104B9000FFF7DAFE7B68D8687B681B8A002219461B
:104BA000FDF7AEFB0120FFF7CFFE7B68586B7B68FB
:104BB000198FBB7B03F00103DBB21A46FDF7A0FBA4
:104BC0007B68D86B7B68B3F84010BB7B5B08DBB2BB
:104BD00003F00103DBB21A46FDF792FB7B68586CC9
:104BE0007B68B3F84810BB7B9B08DBB203F0010382
:104BF000DBB21A46FDF784FB7B68D86C7B68B3F8A0
:104C00005010BB7BDB08DBB203F00103DBB21A46BA
:104C1000FDF776FB7B68D8687B681B8A0022194603
:104C2000FDF76EFB0120FFF78FFE7B68D8687B687D
:104C30001B8A01221946FDF763FB0120FFF784FE62
:104C40007B68D8687B681B8A00221946FDF758FBF1
:104C50000120FFF779FE00BF1037BD4680BD80B54B
:104C600084B000AFF8607B600B46FB721346BB72EA
:104C7000FB6800221A70FB68FA7A5A70FB68BA7AED
:104C80009A70FB687A685A60FB683A8B1A81FB68F5
:104C9000FA69DA60FB683A8C1A82FB687A6A5A63AE
:104CA000FB683A8D1A87FB68FA6ADA63FB683A8E0A
:104CB000A3F84020FB687A6B5A64FB683A8FA3F82C
:104CC0004820FB68FA6BDA64FB68B7F84020A3F869
:104CD0005020FB68282283F85520FB68062283F8C1
:104CE0005220FB680C2283F85320FB68142283F8BF
:104CF00054203220FFF728FE00223321F868FFF706
:104D0000DAFE0520FFF720FE00223321F868FFF7C6
:104D1000D2FE0520FFF718FE00223221F868FFF7C7
:104D2000CAFE0520FFF710FEFB6893F85230002200
:104D30001946F868FFF7BFFEFB6893F8533000226E
:104D40001946F868FFF7B7FEFB6893F85430002265
:104D50001946F868FFF7AFFEFB6893F8553000225C
:104D60001946F868FFF7A7FE00220121F868FFF74F
:104D7000A2FE00220221F868FFF79DFE00BF103757
:104D8000BD4680BD80B584B000AF78600B46FB7037
:104D90001346BB700023FB731D4BBB607B685B78C5
:104DA000FA789A4203D37B685B78013BFB707B689F
:104DB0009B78BA789A4203D37B689B78013BBB709F
:104DC000BB7810333B4413F8082CFB781344FB7377
:104DD0007B681B78102B09D1FB7B63F07F03DBB270
:104DE000002219467868FFF7BCFD0CE07B681B7851
:104DF000002B08D1FB7B63F07F03DBB20022194656
:104E00007868FFF758FE00BF1037BD4680BD00BF71
:104E10000040145480B582B000AF78600B46FB7040
:104E20007B681B78102B06D1FB7801221946786825
:104E3000FFF797FD09E07B681B78002B05D1FB7815
:104E4000012219467868FFF736FE00BF0837BD46D5
:104E500080BD80B582B000AF7860396007E03B6804
:104E60005A1C3A601B7819467868FFF7D3FF3B68F5
:104E70001B78002BF3D100BF00BF0837BD4680BDB3
:104E800080B584B000AF786039600121786800F0A7
:104E9000A0F90346BB73BB7BFB733B68002B07D1B8
:104EA000BB7B23F00703FB737B680022DA613EE0E3
:104EB0003B68012B0CD197F90E3023F007035BB24E
:104EC00043F001035BB2FB737B680122DA612EE0E1
:104ED0003B68032B0CD197F90E3023F007035BB22C
:104EE00043F003035BB2FB737B680322DA611EE0CD
:104EF0003B68052B0CD197F90E3023F007035BB20A
:104F000043F005035BB2FB737B680522DA610EE0B8
:104F10003B68062B0BD197F90E3023F007035BB2E9
:104F200043F006035BB2FB737B680622DA61FB7B0E
:104F30001A460121786800F066F900BF1037BD46B7
:104F400080BD80B584B000AFF860B9603B601346A7
:104F5000FB80FB681868FB689B8800221946FDF7F8
:104F6000CFF9FB689869FA884FF4FA63B968FDF7DE
:104F7000C5FE00BFFB689B691846FEF7AEFA034604
:104F8000012BF7D1FB6898693A8B4FF4FA633968C3
:104F9000FDF7F0FF00BFFB689B691846FEF79DFA1E
:104FA0000346012BF7D1FB681868FB689B88012238
:104FB0001946FDF7A5F900BF1037BD4680BD80B585
:104FC00084B000AFF860B9603B601346FB80FB68BB
:104FD0001868FB689B8800221946FDF791F9FB6869
:104FE0009869FA884FF4FA63B968FDF787FE00BF45
:104FF000FB689B691846FEF770FA0346012BF7D150
:10500000FB6898693A8B4FF4FA633968FDF776FECE
:1050100000BFFB689B691846FEF75FFA0346012B49
:10502000F7D1FB681868FB689B8801221946FDF7D9
:1050300067F900BF1037BD4680BD80B584B000AFB2
:10504000786039603B68DB045B11FB60FB681B0C1C
:10505000FB72FB7A1A460621786800F0D4F8052026
:10506000FCF716FEFB681B0AFB72FB7A1A46072147
:10507000786800F0C8F80520FCF70AFEFB68FB72B0
:10508000FB7A1A460821786800F0BDF80520FCF785
:10509000FFFD00BF1037BD4680BD80B584B000AFB6
:1050A000786039603B680C2B01DD0C233B603B686A
:1050B000062B01DC07233B601E21786800F089F88D
:1050C0000346FB730A20FCF7E3FD3B68DBB21B01E0
:1050D000DAB2FB7B03F00F03DBB21344BB73BB7B81
:1050E0001A461E21786800F08EF80A20FCF7D0FDE1
:1050F00000BF1037BD4680BD80B582B000AF78607C
:105100000B46FB70FB781A460921786800F07BF8A3
:105110000A20FCF7BDFD00BF0837BD4680BD00007A
:1051200080B584B000AF78600B46FB700023FB7342
:10513000FB782C2B01D82D23FB70FB78F02B01D9A9
:10514000F023FB70FB78782B09D8FB782D3B124AB3
:1051500082FB03125210DB17D31AFB730BE0FB78B0
:10516000F02B08D8FB781E330B4A82FB03129210F7
:10517000DB17D31AFB73FB7B2033FB73FB7B1A46D5
:105180000B21786800F03FF80A20FCF781FD00BF92
:105190001037BD4680BD00BF6766666680B584B0C7
:1051A00000AF78601E21786800F013F80346FB73A7
:1051B000FB7B43F00703BB73BB7B1A461E21786859
:1051C00000F021F80A20FCF763FD00BF1037BD4650
:1051D00080BD80B586B002AF78600B46FB70FB786F
:1051E00003F07F03DBB2BB7307F10F0307F10E017E
:1051F0000122009201227868FFF7A3FEFB7B18468C
:105200001037BD4680BD80B586B002AF78600B46D2
:10521000FB701346BB70FB7863F07F03DBB2BB739C
:10522000BB78FB7307F10F0307F10E010122009217
:1052300001227868FFF7C3FE00BF1037BD4680BD6E
:1052400080B586B000AFF8607A601A460B46FB72F4
:105250001346BB72FB7A63F07F03DBB2FB75FB681E
:105260001868FB689B8800221946FDF749F8FB681F
:10527000986907F117014FF4FA630122FDF73EFD2B
:1052800000BFFB689B691846FEF727F90346012B10
:10529000F7D1FB689869BB7A9AB24FF4FA637968E0
:1052A000FDF72CFD00BFFB689B691846FEF715F95A
:1052B0000346012BF7D1FB681868FB689B88012225
:1052C0001946FDF71DF800BF1837BD4680BD80B4F4
:1052D00083B000AF7860012318460C37BD4680BC10
:1052E000704780B586B000AFF860B96011461A46C5
:1052F0000B46FB711346BB80FB68DB697B610121B8
:10530000F868FFF7BDFD0E21F868FFF762FF03465E
:10531000FB74FB7C1A460D21F868FFF774FFFB79DC
:105320001A462221F868FFF76EFFFB79BA68002160
:10533000F868FFF785FF0321F868FFF7A1FD122148
:10534000F868FFF746FF0346FB74FB7C03F0080395
:10535000002B0AD0FF221221F868FFF754FF796969
:10536000F868FFF78DFD01230FE0BB88013BBB8090
:10537000BB88002B05D17969F868FFF781FD002310
:1053800003E00120FCF784FCD9E718461837BD4636
:1053900080BD80B582B000AF786005217868FFF7E6
:1053A0006FFD00BF0837BD4680BD80B584B000AF3B
:1053B00078607868FFF78BFF0346002B00F093803E
:1053C00000217868FFF75CFD0A20FCF761FC0121F1
:1053D0007868FFF7FEFE0346FB730A20FCF758FCD3
:1053E000FB7B63F07F03BB73BB7B1A4601217868AC
:1053F000FFF709FF6420FCF74BFC7B681B6A19462A
:105400007868FFF71AFE7B6893F82A3019467868A7
:10541000FFF772FE7B6893F82B3019467868FFF728
:105420007FFE23220C217868FFF7EDFE7868FFF7F6
:10543000B5FE7B6893F8243019467868FFF72DFE97
:10544000FF221F217868FFF7DEFE0023BB737B6815
:1054500093F825301B01DAB27B6893F826305B00A5
:10546000DBB21344BB73BB7B1A461D217868FFF780
:10547000CAFE7B681B8D1B0A9BB2DBB21A46202139
:105480007868FFF7C0FE7B681B8DDBB21A462121CE
:105490007868FFF7B8FE40217868FFF79AFE034668
:1054A000FB73FB7B43F03F03BB73BB7B1A4640217E
:1054B0007868FFF7A8FE01217868FFF7E1FC7B68B8
:1054C0000122DA610A20FCF7E3FB42217868FFF74A
:1054D00080FE0346FB73FB7B122B01D1C82304E043
:1054E0004FF4CA7301E040F2F71318461037BD4677
:1054F00080BD000080B485B000AF78600B467B8033
:10550000FF23FB73FF23BB7313E07B685A1C7A6095
:105510001A78BB7B5340DBB2BB600F4ABB681344B5
:105520001A78FB7B5340BB730C4ABB6813441B784F
:10553000FB737B885A1E7A80002BE6D1FB7B1B0213
:105540001AB2BB7B1BB213431BB29BB21846143773
:10555000BD4680BC704700BF78D9000878DA0008E3
:105560002DE9F04389B000AF78600B46FB706B46C5
:105570001E46F9780B46013B7B61CBB20022984670
:1055800091464FF000024FF000034FEAC90343EA8F
:1055900058734FEAC802CBB200221C4615464FF0A2
:1055A00000024FF00003EB0043EA5473E2000B46A5
:1055B0000733DB08DB00ADEB030D6B4600333B61CB
:1055C0000023FB610BE0FB697A68134419783A69A0
:1055D000FB6913440A461A70FB690133FB61FB78CF
:1055E000023BFA699A42EEDBFB789BB2023B9BB22C
:1055F00019463869FFF77EFF0346FB81FB78023BC3
:10560000FA89D1B23A69D154FB891B0A9AB2FB7864
:10561000013BD1B23A69D154FB78023B3A69D25C82
:10562000FB78023B79680B441B789A420DD1FB78DA
:10563000023B3A69D25CFB78023B79680B441B78E9
:105640009A4202D10123FB7601E00023FB76FB7E28
:10565000B54618462437BD46BDE8F08380B489B00E
:1056600000AF78600023FB610023BB610023FB6077
:105670007B68DB0FFB6000237B610EE07B69C3F17D
:105680001E037A6822FA03F303F00102BB69134395
:105690005B00BB617B6901337B617B69072BEDDDBF
:1056A000BB695B08BB6100233B610EE03B69C3F152
:1056B00016037A6822FA03F303F00102FB6913432D
:1056C0005B00FB613B6901333B613B69162BEDDD00
:1056D000FB695B08FB61FB6803F00103DAB2FB7A4C
:1056E00062F3C713FB72BB69DAB27B8962F3CE1334
:1056F0007B81FB69C3F31602BB6862F31603BB60D0
:10570000BB6818462437BD4680BC704780B584B05E
:1057100000AFF0233B7103237B710223BB71002395
:10572000FB7100233B7201237B723B1D062118464F
:10573000FFF7E0FE0346FB81FB89DBB2BB72FB890E
:105740001B0A9BB2DBB2FB72391D4FF47A7308223D
:105750000348FEF70EFC00BF1037BD4680BD00BFFA
:10576000A002002080B483B000AF0346FB80FB881A
:10577000012B02D140F2D17301E04FF4FA631846D5
:105780000C37BD4680BC704780B584B000AFF023B5
:105790003B7103237B710223BB710323FB71002345
:1057A0003B7202237B723B1D06211846FFF7A2FEC7
:1057B0000346FB81FB89DBB2BB72FB891B0A9BB2F0
:1057C000DBB2FB72391D4FF47A7308220348FEF7EF
:1057D000D0FB00BF1037BD4680BD00BFA002002037
:1057E00080B483B000AF0346FB80FB88002B01D15F
:1057F00000231FE0FB88012B02D140F6B93319E0EA
:10580000FB88022B02D140F6BA3313E0FB88042B4D
:1058100002D140F6BB330DE0FB88082B02D140F6E5
:10582000BC3307E0FB88102B02D140F6BD3301E00A
:1058300040F6BE3318460C37BD4680BC70470000AA
:1058400080B584B000AFF0233B7103237B7102234A
:10585000BB710823FB7100233B7201237B723B1D4C
:1058600006211846FFF746FE0346FB81FB89DBB2A3
:10587000BB72FB891B0A9BB2DBB2FB72391D4FF472
:105880007A7308220348FEF774FB00BF1037BD4649
:1058900080BD00BFA002002080B483B000AF0346EB
:1058A000FB80FB88002B01D100231EE0FB88012B2D
:1058B00001D1012319E0FB88022B01D1022314E05E
:1058C000FB88042B01D103230FE0FB88082B01D1B7
:1058D00004230AE0FB88202B01D1052305E0FB8887
:1058E000802B01D1062300E0072318460C37BD4664
:1058F00080BC704780B584B000AFF0233B710323B8
:105900007B710223BB710723FB7100233B720123D0
:105910007B723B1D06211846FFF7ECFD0346FB8119
:10592000FB89DBB2BB72FB891B0A9BB2DBB2FB7249
:10593000391D4FF47A7308220348FEF71AFB00BFA3
:105940001037BD4680BD00BFA002002080B483B0E8
:1059500000AF0346FB80FB88002B01D100231EE033
:10596000FB88012B01D1012319E0FB88022B01D117
:10597000022314E0FB88042B01D103230FE0FB88F2
:10598000082B01D104230AE0FB88202B01D1052339
:1059900005E0FB88802B01D1062300E00723184691
:1059A0000C37BD4680BC704780B584B000AFF02393
:1059B0003B7103237B710223BB710A23FB7100231C
:1059C0003B7201237B723B1D06211846FFF792FDB7
:1059D0000346FB81FB89DBB2BB72FB891B0A9BB2CE
:1059E000DBB2FB72391D4FF47A7308220348FEF7CD
:1059F000C0FA00BF1037BD4680BD00BFA002002026
:105A000080B483B000AF0346FB80FB88002B01D13C
:105A1000002314E0FB88012B01D100230FE0FB8859
:105A2000022B01D101230AE0FB88042B01D10223C0
:105A300005E0FB88082B01D1032300E0042318466E
:105A40000C37BD4680BC704780B584B000AFF023F2
:105A50003B7103237B710023BB710223FB71002385
:105A60003B7202237B723B1D06211846FFF742FD65
:105A70000346FB81FB89DBB2BB72FB891B0A9BB22D
:105A8000DBB2FB72391D4FF47A7308220348FEF72C
:105A900070FA00BF1037BD4680BD00BFA0020020D5
:105AA00080B584B000AFF0233B7103237B710023EA
:105AB000BB712223FB7100233B7202237B723B1DCF
:105AC00006211846FFF716FD0346FB81FB89DBB272
:105AD000BB72FB891B0A9BB2DBB2FB72391D4FF410
